{
  "contractName": "FirmwareUpdate",
  "abi": [
    {
      "anonymous": false,
      "inputs": [
        {
          "indexed": false,
          "internalType": "address",
          "name": "sender",
          "type": "address"
        },
        {
          "indexed": false,
          "internalType": "bytes32",
          "name": "Uid",
          "type": "bytes32"
        }
      ],
      "name": "NewFirmwareStored",
      "type": "event"
    },
    {
      "constant": true,
      "inputs": [
        {
          "internalType": "bytes32",
          "name": "",
          "type": "bytes32"
        }
      ],
      "name": "firmwareMetadata",
      "outputs": [
        {
          "internalType": "int256",
          "name": "firmware_version",
          "type": "int256"
        },
        {
          "internalType": "int256",
          "name": "manufacturer_id",
          "type": "int256"
        },
        {
          "internalType": "bytes32",
          "name": "release_date",
          "type": "bytes32"
        },
        {
          "internalType": "bytes32",
          "name": "dtype",
          "type": "bytes32"
        },
        {
          "internalType": "bytes32",
          "name": "url",
          "type": "bytes32"
        }
      ],
      "payable": false,
      "stateMutability": "view",
      "type": "function"
    },
    {
      "constant": false,
      "inputs": [
        {
          "internalType": "bytes32",
          "name": "Uid",
          "type": "bytes32"
        },
        {
          "internalType": "int256",
          "name": "fv",
          "type": "int256"
        },
        {
          "internalType": "int256",
          "name": "Mid",
          "type": "int256"
        },
        {
          "internalType": "bytes32",
          "name": "release_date",
          "type": "bytes32"
        },
        {
          "internalType": "bytes32",
          "name": "_dtype",
          "type": "bytes32"
        },
        {
          "internalType": "bytes32",
          "name": "_url",
          "type": "bytes32"
        }
      ],
      "name": "storeFirmwareMetadata",
      "outputs": [],
      "payable": false,
      "stateMutability": "nonpayable",
      "type": "function"
    },
    {
      "constant": true,
      "inputs": [
        {
          "internalType": "bytes32",
          "name": "Uid",
          "type": "bytes32"
        }
      ],
      "name": "getFirmwareUpdate",
      "outputs": [
        {
          "internalType": "int256",
          "name": "",
          "type": "int256"
        },
        {
          "internalType": "int256",
          "name": "",
          "type": "int256"
        },
        {
          "internalType": "bytes32",
          "name": "",
          "type": "bytes32"
        },
        {
          "internalType": "bytes32",
          "name": "",
          "type": "bytes32"
        },
        {
          "internalType": "bytes32",
          "name": "",
          "type": "bytes32"
        }
      ],
      "payable": false,
      "stateMutability": "view",
      "type": "function"
    }
  ],
  "bytecode": "0x608060405234801561001057600080fd5b5061030d806100206000396000f3fe608060405234801561001057600080fd5b50600436106100415760003560e01c80633b5a405a146100465780633ddef279146100a4578063d7b531df14610102575b600080fd5b6100726004803603602081101561005c57600080fd5b8101908080359060200190929190505050610162565b604051808681526020018581526020018481526020018381526020018281526020019550505050505060405180910390f35b6100d0600480360360208110156100ba57600080fd5b81019080803590602001909291905050506101eb565b604051808681526020018581526020018481526020018381526020018281526020019550505050505060405180910390f35b610160600480360360c081101561011857600080fd5b81019080803590602001909291908035906020019092919080359060200190929190803590602001909291908035906020019092919080359060200190929190505050610221565b005b60008060008060008060008781526020019081526020016000206000015460008088815260200190815260200160002060010154600080898152602001908152602001600020600201546000808a8152602001908152602001600020600301546000808b8152602001908152602001600020600401549450945094509450945091939590929450565b60006020528060005260406000206000915090508060000154908060010154908060020154908060030154908060040154905085565b600080600088815260200190815260200160002090508581600001819055508481600101819055508381600201819055508281600301819055508181600401819055507f32d4dcb45a87bf0d7c1d3cba4ea965a53840a0bea89d93f55b897b9c1b5fe35b3388604051808373ffffffffffffffffffffffffffffffffffffffff1673ffffffffffffffffffffffffffffffffffffffff1681526020018281526020019250505060405180910390a15050505050505056fea265627a7a723158203596cdbdeacdfb508b9279c346daaabffa89342ed8e97f1c7c7293ad63ab548064736f6c63430005100032",
  "source": "pragma solidity >=0.4.25 <0.7.0;\n\ncontract FirmwareUpdate {\n    struct firmware {\n        int firmware_version; //newest firmware version\n        int manufacturer_id;\n        bytes32 release_date; //Month-year: mm-yyyy\n        bytes32 dtype; //device type\n        bytes32 url; //url to download binary file. Need or not ?\n    }\n\n    //key: hash of binary firmware update file, value firmware struct\n    mapping (bytes32 => firmware) public firmwareMetadata;\n\n    event NewFirmwareStored(address sender, bytes32 Uid);\n\n    function storeFirmwareMetadata(bytes32 Uid, int fv, int Mid, bytes32 release_date, bytes32 _dtype, bytes32 _url) public {\n        firmware storage p = firmwareMetadata[Uid];\n        p.firmware_version = fv;\n        p.manufacturer_id = Mid;\n        p.release_date = release_date;\n        p.dtype = _dtype;\n        p.url = _url;\n\n        emit NewFirmwareStored(msg.sender, Uid);\n    }\n\n    function getFirmwareUpdate(bytes32 Uid) public view returns(int, int, bytes32, bytes32, bytes32){\n        return (firmwareMetadata[Uid].firmware_version,\n        firmwareMetadata[Uid].manufacturer_id,\n        firmwareMetadata[Uid].release_date,\n        firmwareMetadata[Uid].dtype,\n        firmwareMetadata[Uid].url);\n    }\n}",
  "sourcePath": "/home/lizz/MyProjects/test-fu/contracts/FirmwareUpdate.sol",
  "compiler": {
    "name": "solc",
    "version": "0.5.16+commit.9c3226ce.Emscripten.clang"
  },
  "schemaVersion": "3.0.23",
  "updatedAt": "2020-03-24T05:15:12.523Z",
  "networkType": "ethereum",
  "devdoc": {
    "methods": {}
  },
  "userdoc": {
    "methods": {}
  }
}