{
  "contractName": "FirmwareUpdate",
  "abi": [
    {
      "anonymous": false,
      "inputs": [
        {
          "indexed": false,
          "internalType": "address",
          "name": "sender",
          "type": "address"
        },
        {
          "indexed": false,
          "internalType": "bytes32",
          "name": "Uid",
          "type": "bytes32"
        }
      ],
      "name": "NewFirmwareStored",
      "type": "event"
    },
    {
      "anonymous": false,
      "inputs": [],
      "name": "VerificationFailed",
      "type": "event"
    },
    {
      "constant": true,
      "inputs": [
        {
          "internalType": "bytes32",
          "name": "",
          "type": "bytes32"
        }
      ],
      "name": "firmwareMetadata",
      "outputs": [
        {
          "internalType": "bytes",
          "name": "signature",
          "type": "bytes"
        },
        {
          "internalType": "int256",
          "name": "firmware_version",
          "type": "int256"
        },
        {
          "internalType": "int256",
          "name": "manufacturer_id",
          "type": "int256"
        },
        {
          "internalType": "bytes32",
          "name": "release_date",
          "type": "bytes32"
        },
        {
          "internalType": "bytes32",
          "name": "dtype",
          "type": "bytes32"
        },
        {
          "internalType": "bytes32",
          "name": "url",
          "type": "bytes32"
        }
      ],
      "payable": false,
      "stateMutability": "view",
      "type": "function"
    },
    {
      "constant": false,
      "inputs": [
        {
          "internalType": "bytes32",
          "name": "Uid",
          "type": "bytes32"
        },
        {
          "internalType": "int256",
          "name": "fv",
          "type": "int256"
        },
        {
          "internalType": "int256",
          "name": "Mid",
          "type": "int256"
        },
        {
          "internalType": "bytes32",
          "name": "date",
          "type": "bytes32"
        },
        {
          "internalType": "bytes32",
          "name": "_dtype",
          "type": "bytes32"
        },
        {
          "internalType": "bytes32",
          "name": "_url",
          "type": "bytes32"
        },
        {
          "internalType": "bytes",
          "name": "signature",
          "type": "bytes"
        }
      ],
      "name": "storeFirmwareMetadata",
      "outputs": [],
      "payable": false,
      "stateMutability": "nonpayable",
      "type": "function"
    },
    {
      "constant": true,
      "inputs": [
        {
          "internalType": "bytes32",
          "name": "Uid",
          "type": "bytes32"
        }
      ],
      "name": "getFirmwareUpdate",
      "outputs": [
        {
          "internalType": "int256",
          "name": "",
          "type": "int256"
        },
        {
          "internalType": "int256",
          "name": "",
          "type": "int256"
        },
        {
          "internalType": "bytes32",
          "name": "",
          "type": "bytes32"
        },
        {
          "internalType": "bytes32",
          "name": "",
          "type": "bytes32"
        },
        {
          "internalType": "bytes32",
          "name": "",
          "type": "bytes32"
        },
        {
          "internalType": "bytes",
          "name": "",
          "type": "bytes"
        }
      ],
      "payable": false,
      "stateMutability": "view",
      "type": "function"
    },
    {
      "constant": true,
      "inputs": [
        {
          "internalType": "bytes32",
          "name": "hash",
          "type": "bytes32"
        },
        {
          "internalType": "bytes",
          "name": "signature",
          "type": "bytes"
        }
      ],
      "name": "recover",
      "outputs": [
        {
          "internalType": "address",
          "name": "",
          "type": "address"
        }
      ],
      "payable": false,
      "stateMutability": "pure",
      "type": "function"
    }
  ],
  "bytecode": "0x608060405234801561001057600080fd5b50610949806100206000396000f3fe608060405234801561001057600080fd5b506004361061004c5760003560e01c806319045a25146100515780633b5a405a146101565780633ddef2791461022057806347d201ae146102ea575b600080fd5b6101146004803603604081101561006757600080fd5b81019080803590602001909291908035906020019064010000000081111561008e57600080fd5b8201836020820111156100a057600080fd5b803590602001918460018302840111640100000000831117156100c257600080fd5b91908080601f016020809104026020016040519081016040528093929190818152602001838380828437600081840152601f19601f8201169050808301925050505050505091929192905050506103e1565b604051808273ffffffffffffffffffffffffffffffffffffffff1673ffffffffffffffffffffffffffffffffffffffff16815260200191505060405180910390f35b6101826004803603602081101561016c57600080fd5b81019080803590602001909291905050506104c3565b6040518087815260200186815260200185815260200184815260200183815260200180602001828103825283818151815260200191508051906020019080838360005b838110156101e05780820151818401526020810190506101c5565b50505050905090810190601f16801561020d5780820380516001836020036101000a031916815260200191505b5097505050505050505060405180910390f35b61024c6004803603602081101561023657600080fd5b8101908080359060200190929190505050610601565b6040518080602001878152602001868152602001858152602001848152602001838152602001828103825288818151815260200191508051906020019080838360005b838110156102aa57808201518184015260208101905061028f565b50505050905090810190601f1680156102d75780820380516001836020036101000a031916815260200191505b5097505050505050505060405180910390f35b6103df600480360360e081101561030057600080fd5b810190808035906020019092919080359060200190929190803590602001909291908035906020019092919080359060200190929190803590602001909291908035906020019064010000000081111561035957600080fd5b82018360208201111561036b57600080fd5b8035906020019184600183028401116401000000008311171561038d57600080fd5b91908080601f016020809104026020016040519081016040528093929190818152602001838380828437600081840152601f19601f8201169050808301925050505050505091929192905050506106d5565b005b60008060008060418551146103fc57600093505050506104bd565b6020850151925060408501519150606085015160001a9050601b8160ff16101561042757601b810190505b601b8160ff161415801561043f5750601c8160ff1614155b1561045057600093505050506104bd565b60018682858560405160008152602001604052604051808581526020018460ff1660ff1681526020018381526020018281526020019450505050506020604051602081039080840390855afa1580156104ad573d6000803e3d6000fd5b5050506020604051035193505050505b92915050565b6000806000806000606060008088815260200190815260200160002060010154600080898152602001908152602001600020600201546000808a8152602001908152602001600020600301546000808b8152602001908152602001600020600401546000808c8152602001908152602001600020600501546000808d8152602001908152602001600020600001808054600181600116156101000203166002900480601f0160208091040260200160405190810160405280929190818152602001828054600181600116156101000203166002900480156105e55780601f106105ba576101008083540402835291602001916105e5565b820191906000526020600020905b8154815290600101906020018083116105c857829003601f168201915b5050505050905095509550955095509550955091939550919395565b6000602052806000526040600020600091509050806000018054600181600116156101000203166002900480601f0160208091040260200160405190810160405280929190818152602001828054600181600116156101000203166002900480156106ad5780601f10610682576101008083540402835291602001916106ad565b820191906000526020600020905b81548152906001019060200180831161069057829003601f168201915b5050505050908060010154908060020154908060030154908060040154908060050154905086565b6000878787878787604051602001808781526020018681526020018581526020018481526020018381526020018281526020019650505050505050604051602081830303815290604052805190602001209050600061073482846103e1565b90503373ffffffffffffffffffffffffffffffffffffffff168173ffffffffffffffffffffffffffffffffffffffff1614156108375760008060008b81526020019081526020016000209050888160010181905550878160020181905550868160030181905550858160040181905550848160050181905550838160000190805190602001906107c592919061086f565b507f32d4dcb45a87bf0d7c1d3cba4ea965a53840a0bea89d93f55b897b9c1b5fe35b338b604051808373ffffffffffffffffffffffffffffffffffffffff1673ffffffffffffffffffffffffffffffffffffffff1681526020018281526020019250505060405180910390a150610864565b7f439cc0cdcf5111cc6eb1408a02ed260489a5b67e33c63cb120740798d258a94960405160405180910390a15b505050505050505050565b828054600181600116156101000203166002900490600052602060002090601f016020900481019282601f106108b057805160ff19168380011785556108de565b828001600101855582156108de579182015b828111156108dd5782518255916020019190600101906108c2565b5b5090506108eb91906108ef565b5090565b61091191905b8082111561090d5760008160009055506001016108f5565b5090565b9056fea265627a7a7231582036532a719c4ff91d18b0aecb35a6030ca9c834ebda2863d419beddfae29f9ea764736f6c63430005100032",
  "source": "pragma solidity >=0.4.23 <0.7.0;\n\ncontract FirmwareUpdate {\n    struct firmware {\n        bytes signature; //manufacturer address\n        int firmware_version; //newest firmware version\n        int manufacturer_id;\n        bytes32 release_date; //Month-year: mm-yyyy\n        bytes32 dtype; //device type\n        bytes32 url; //url to download binary file. Need or not ?\n    }\n\n    //key: hash of binary firmware update file, value firmware struct\n    mapping (bytes32 => firmware) public firmwareMetadata;\n    //string public signedPrefix = \"NewFirmwareUpdate:\";\n\n    event NewFirmwareStored(address sender, bytes32 Uid);\n    event VerificationFailed();\n\n    function storeFirmwareMetadata(bytes32 Uid, int fv, int Mid, bytes32 date, bytes32 _dtype, bytes32 _url, bytes memory signature) public {\n        bytes32 hash = keccak256(abi.encodePacked(Uid,fv,Mid,date,_dtype,_url));\n        //bytes32 messageHash = keccak256(abi.encodePacked(signedPrefix,hash));\n        address signer = recover(hash, signature);\n        if (signer == msg.sender) {\n            firmware storage p = firmwareMetadata[Uid];\n            p.firmware_version = fv;\n            p.manufacturer_id = Mid;\n            p.release_date = date;\n            p.dtype = _dtype;\n            p.url = _url;\n            p.signature = signature;\n            //p.isVerified = true;\n\n            emit NewFirmwareStored(msg.sender, Uid);\n        } else {\n            emit VerificationFailed();\n        }\n    }\n\n    function getFirmwareUpdate(bytes32 Uid) public view returns(int, int, bytes32, bytes32, bytes32, bytes memory){\n        return (firmwareMetadata[Uid].firmware_version,\n        firmwareMetadata[Uid].manufacturer_id,\n        firmwareMetadata[Uid].release_date,\n        firmwareMetadata[Uid].dtype,\n        firmwareMetadata[Uid].url,\n        firmwareMetadata[Uid].signature);\n    }\n\n    /**\n    * @dev Recover signer address from a message by using their signature\n    * @param hash bytes32 message, the hash is the signed message. What is recovered is the signer address.\n    * @param signature bytes signature, the signature is generated using web3.eth.sign()\n    */\n    function recover(bytes32 hash, bytes memory signature) public pure returns (address) {\n        bytes32 r;\n        bytes32 s;\n        uint8 v;\n\n        // Check the signature length\n        if (signature.length != 65) {\n            return (address(0));\n        }\n\n        // Divide the signature in r, s and v variables\n        // ecrecover takes the signature parameters, and the only way to get them\n        // currently is to use assembly.\n        // solium-disable-next-line security/no-inline-assembly\n        assembly {\n            r := mload(add(signature, 0x20))\n            s := mload(add(signature, 0x40))\n            v := byte(0, mload(add(signature, 0x60)))\n        }\n\n        // Version of signature should be 27 or 28, but 0 and 1 are also possible versions\n        if (v < 27) {\n            v += 27;\n        }\n\n        // If the version is correct return the signer address\n        if (v != 27 && v != 28) {\n            return (address(0));\n        } else {\n            // solium-disable-next-line arg-overflow\n            return ecrecover(hash, v, r, s);\n        }\n    }\n}",
  "sourcePath": "/home/lizz/MyProjects/test-fu/contracts/FirmwareUpdate.sol",
  "compiler": {
    "name": "solc",
    "version": "0.5.16+commit.9c3226ce.Emscripten.clang"
  },
  "schemaVersion": "3.0.23",
  "updatedAt": "2020-04-09T13:05:04.832Z",
  "networkType": "ethereum",
  "devdoc": {
    "methods": {
      "recover(bytes32,bytes)": {
        "details": "Recover signer address from a message by using their signature",
        "params": {
          "hash": "bytes32 message, the hash is the signed message. What is recovered is the signer address.",
          "signature": "bytes signature, the signature is generated using web3.eth.sign()"
        }
      }
    }
  },
  "userdoc": {
    "methods": {}
  }
}